:10000000FF3F0020090000001049114B10B5994234
:100010000BD2013B5A1A0023920801320D4892007C
:10002000C458CC5004339342FAD10B4B0B4A934241
:1000300009D20321013AD21A8A43191D521800210C
:1000400002C39342FCD100F00BF810BD1800002051
:100050007C050020700000007C050020A407002023
:1000600001B40248844601BC604700BF610500201E
:1000700070B5264C2578002D00D070BD00F024FA14
:100080000028FAD000F028FAC6B200F047FA00289B
:1000900017D162786368002A20D0A2689A4204D9F6
:1000A0001B48591CC6540B0061609A4206D10023BC
:1000B000226101226360A3602270637000F020FA65
:1000C000DBE701236360124B65701E700023114A49
:1000D000D35CB342F2D000236360EFE70C495A1CB3
:1000E0006260CE54042AF2D9092AE7D10A4B0A6881
:1000F0009A4203D0512000F0D5F9ECE74B68A36099
:100100008B68237301236370E5E7C0467C050020FC
:10011000A0060020780500204D434850F8B5CE4693
:10012000474680B5FFF7A4FF5A4C237D002B17D11B
:100130002378002B03D10CBC90469946F8BD237B55
:10014000A02B40D0A12B66D0A62B00D185E0A22BFE
:1001500000D18CE0A32B4ED0522000F0A3F947E051
:10016000A3699946236948461F1F00F04BF901E037
:10017000FFF77EFF00F03EF90028F9D1484600F075
:100180002DF901E0FFF774FF00F034F90028F9D1F0
:10019000002F15D0404B4D460026984643464A4610
:1001A000981A4019290000F005F901E0FFF760FFF7
:1001B00000F020F90028F9D140364035B742EDD89B
:1001C00000232375B7E7FF22344B19685B6891431E
:1001D0000A003F218B439B189A4203D28021C90217
:1001E0008B4212D900235120E361236200F05AF9B7
:1001F000002323709FE7502000F054F900F05CF9D1
:100200000028FBD000F066F8F2E75020E26123629C
:1002100000F048F9ECE7214A5E33116899430B007E
:10022000A161E1698B4214D3216A8B4211D21A4930
:10023000002388468021043249004046D558C550E5
:1002400004338B42F9D101235020237500F02AF9A1
:10025000CEE7512000F026F9CAE7502000F022F93D
:10026000012000F01FF9012000F01CF9C0E70B4B42
:10027000E2691D68236A1000991A00F013F885429C
:1002800003D0542000F00EF9B2E7532000F00AF931
:10029000AEE7C0467C050020A0050020A006002097
:1002A0007047C046012330B504000D0083B05B42A7
:1002B00001212120019300F0AFF801AB019A290040
:1002C000200000F04FF80221212000F0A5F801984D
:1002D00003B030BDBFF34F8F034B044ADA60BFF366
:1002E0004F8FC046FDE7C04600ED00E00400FA0570
:1002F00070B50468631C06D045680020FFF7D0FF86
:1003000084F30888284770BD104B04215A681B6885
:100310005203DB0C13439B020D4A9B0A936300229A
:100320000C4B9A611A610C4A0C4B136253681942C8
:10033000FCD1942340215B00D1501A000648835819
:100340001942FCD00222064B1A62704720608000DE
:100350000010004000140040001C00400601010095
:100360000008004010B5002911D0002B0FD00B4C15
:100370006060A160E26062780120D2B26270042203
:10038000227061780842FCD061784A0701D50020CC
:1003900010BDE26801201A60FAE7C0460020004163
:1003A000BFF35F8F62B670478022014B5A6070477F
:1003B000004000410A000B0010B54032401A1C58A2
:1003C00010C39342FBD1034B034A4908D961012072
:1003D0001A8010BD0040004104A5FFFF034B044AF2
:1003E0004008D86101201A807047C0460040004193
:1003F00002A5FFFF0120024B1B7D98437047C046BA
:1004000000400041024B034A4008D8611A807047FF
:100410000040004141A5FFFF802300040904000CB7
:100420000843DB051860704782238022DB05120534
:100430001A605B211A61002202205A541E395A5454
:100440008731585412395A5408491132FF329950A1
:10045000A621103AFF3A49005A544E21FF315A540E
:1004600036322C39FF32FF399954704701000004AD
:10047000094A0A4B13600A4B9381C0239B025360C5
:10048000D369002BFCD1022113680B431360024A8D
:10049000D369002BFCD170470004004304011040D5
:1004A000098AFFFF0121034A137E1942FCD080B262
:1004B0001085704700040043024B187E8007C00F70
:1004C0007047C04600040043024B187E4007C00F2F
:1004D0007047C04600040043014B188D80B270473E
:1004E000000400430022044B1A609A60034A5A60D9
:1004F00004221A607047C04610E000E07F1A060030
:1005000001200022044B1968814319609A601A681F
:1005100002431A607047C04610E000E0024B1868C2
:10052000C003C00F7047C04610E000E010B5FFF7F1
:100530003BFFFFF779FF00F013F800280AD0FFF720
:10054000E3FEFFF731FFFFF793FFFFF7CBFFFFF766
:1005500027FF10BD80200001FFF7CAFEEFE7C0466D
:1005600010B58224F223E405A020102103E0013B12
:10057000DBB2002B02D022581142F8D080239B0519
:100580000C491A688A4207D08222A0230120D20592
:10059000D3581B09984310BD59689142F4D19A6809
:1005A0008A42F1D1D9689142EED1002201201A602D
:1005B000F1E7C0464D43485010B50020FFF7B6FFA5
:1005C00082238022DB0512055A61FFF7A7FDFCE7B5
:0405D0004D434850FF
:00000001FF
