:10000000FF3F0020090000001049114B10B5994234
:100010000BD2013B5A1A0023920801320D4892007C
:10002000C458CC5004339342FAD10B4B0B4A934241
:1000300009D20321013AD21A8A43191D521800210C
:1000400002C39342FCD100F00BF810BD1800002051
:100050006C050020700000006C0500209407002053
:1000600001B40248844601BC604700BFDD040020A3
:1000700070B5264C2578002D00D070BD00F092FAA6
:100080000028FAD000F096FAC6B200F005FA00286F
:1000900017D162786368002A20D0A2689A4204D9F6
:1000A0001B48591CC6540B0061609A4206D10023BC
:1000B000226101226360A3602270637000F0DEF9A8
:1000C000DBE701236360124B65701E700023114A49
:1000D000D35CB342F2D000236360EFE70C495A1CB3
:1000E0006260CE54042AF2D9092AE7D10A4B0A6881
:1000F0009A4203D0512000F043FAECE74B68A3602A
:100100008B68237301236370E5E7C0466C0500200C
:1001100090060020680500204D434850F0B5C646C3
:1001200000B5FFF7A5FF574D2B7D002B16D12B787F
:10013000002B02D104BC9046F0BD2B7BA02B3DD000
:10014000A12B63D0A62B00D180E0A22B00D187E0A9
:10015000A32B4BD0522000F013FA44E0AC692B697A
:100160002000043B984600F045F901E0FFF780FFCE
:1001700000F038F90028F9D1200000F027F901E05B
:10018000FFF776FF00F02EF90028F9D14346002B47
:1001900011D000263C4F3F1B3819210000F002F916
:1001A00001E0FFF765FF00F01DF90028F9D14036A6
:1001B0004034B045F0D800232B75BBE7FF22334B0A
:1001C00019685B6891430A003F218B439B189A4250
:1001D00003D28021C9028B4212D900235120EB6146
:1001E0002B6200F0CDF900232B70A3E7502000F024
:1001F000C7F900F0CFF90028FBD000F063F8F2E770
:100200005020EA612B6200F0BBF9ECE71F495E3336
:100210000A689A431300AA61EA69934212D32A6AD0
:1002200093420FD280200023174F04314000CA5858
:10023000FA5004338342FAD1012350202B7500F089
:100240009FF9D0E7512000F09BF9CCE7502000F057
:1002500097F9012000F094F9012000F091F9C2E72C
:100260000A4BEA691C682B6A1000991A00F012F810
:10027000844203D0542000F083F9B4E7532000F007
:100280007FF9B0E76C050020900500209006002063
:100290007047C046012330B504000D0083B05B42B7
:1002A00001212120019300F0AFF801AB019A290050
:1002B000200000F04FF80221212000F0A5F801985D
:1002C00003B030BDBFF34F8F034B044ADA60BFF376
:1002D0004F8FC046FDE7C04600ED00E00400FA0580
:1002E00070B50468631C06D045680020FFF7D0FF96
:1002F00084F30888284770BD104B04215A681B6896
:100300005203DB0C13439B020D4A9B0A93630022AA
:100310000C4B9A611A610C4A0C4B136253681942D8
:10032000FCD1942340215B00D1501A000648835829
:100330001942FCD00222064B1A62704720608000EE
:100340000010004000140040001C004006010100A5
:100350000008004010B5002911D0002B0FD00B4C25
:100360006060A160E26062780120D2B26270042213
:10037000227061780842FCD061784A0701D50020DC
:1003800010BDE26801201A60FAE7C0460020004173
:10039000BFF35F8F62B670478022014B5A6070478F
:1003A000004000410A000B0010B54032401A1C58B2
:1003B00010C39342FBD1034B034A4908D961012082
:1003C0001A8010BD0040004104A5FFFF034B044A02
:1003D0004008D86101201A807047C04600400041A3
:1003E00002A5FFFF0120024B1B7D98437047C046CA
:1003F00000400041024B034A4008D8611A80704710
:100400000040004141A5FFFF802300040904000CC7
:100410000843DB051860704782238022DB05120544
:100420001A605B211A61002202205A541E395A5464
:100430008731585412395A5408491132FF329950B1
:10044000A621103AFF3A49005A544E21FF315A541E
:1004500036322C39FF32FF399954704701000004BD
:100460000022044B1A609A60034A5A6004221A6000
:100470007047C04610E000E07F1A0600012000220D
:10048000044B1968814319609A601A6802431A6024
:100490007047C04610E000E0024B1868C003C00F70
:1004A0007047C04610E000E010B5FFF775FFFFF79A
:1004B000B3FF00F013F800280AD0FFF71DFFFFF785
:1004C0006BFF00F043F8FFF7CBFFFFF761FF10BDB4
:1004D00080200001FFF704FFEFE7C04610B582243B
:1004E000F223E405A020102103E0013BDBB2002B46
:1004F00002D022581142F8D080239B050C491A687B
:100500008A4207D08222A0230120D205D3581B099A
:10051000984310BD59689142F4D19A688A42F1D14A
:10052000D9689142EED1002201201A60F1E7C0465D
:100530004D43485010B50020FFF7B6FF82238022BC
:10054000DB0512055A61FFF7E9FDFCE7094A0A4B92
:1005500013600A4B9381C0239B025360D369002B25
:10056000FCD1022113680B431360024AD369002BAC
:10057000FCD170470004004304011040098AFFFFCA
:100580000121034A137E1942FCD080B210857047C6
:1005900000040043024B187E8007C00F7047C0461E
:1005A00000040043024B187E4007C00F7047C0464E
:1005B00000040043014B188D80B2704700040043D3
:0405C0004D4348500F
:0807DC00F8B5C046F8B5C046AF
:00000001FF
