:020000040000fa
:08000000ff3f00200900000091
:020000040000fa
:100008001049114b10b599420bd2013b5a1a0023e3
:10001800920801320d489200c458cc5004339342e0
:10002800fad10b4b0b4a934209d20321013ad21a57
:100038008a43191d5218002102c39342fcd100f0d3
:100048000bf810bd1800002070050020700000009b
:10005800700500209807002001b40248844601bcbe
:08006800604700bf51050020b4
:020000040000fa
:100070007047c046012330b504000d0083b05b42d9
:1000800001212120019300f0d9f901ab019a290047
:10009000200000f077f90221212000f0cff901982b
:1000a00003b030bd70b50468631c06d045680020fd
:1000b000fff7deff84f30888284770bd70b5264c33
:1000c0002578002d00d070bd00f00cfa0028fad081
:1000d00000f010fac6b200f02ffa002817d16278ab
:1000e0006368002a20d0a2689a4204d91b48591c90
:1000f000c6540b0061609a4206d10023226101229e
:100100006360a3602270637000f008fadbe70123ec
:100110006360124b65701e700023114ad35cb342ba
:10012000f2d000236360efe70c495a1c6260ce54a2
:10013000042af2d9092ae7d10a4b0a689a4203d065
:10014000512000f0bdf9ece74b68a3608b68237386
:1001500001236370e5e7c046700500209406002087
:100160006c0500204d434850f0b5c64600b5fff77a
:10017000a5ff5a4d2b7d002b17d12b78002b02d1d8
:1001800004bc9046f0bd2b7ba02b3ed0a12b58d0b9
:10019000a62b76d0a22b7ed0a32b00d18de05220af
:1001a00000f08ef900232b70eae7ac692b69200080
:1001b000043b984600f036f901e0fff77fff00f0be
:1001c00029f90028f9d1200000f018f901e0fff723
:1001d00075ff00f01ff90028f9d14346002b11d01c
:1001e00000263f4f3f1b3819210000f0f3f801e0d3
:1001f000fff764ff00f00ef90028f9d140364034d3
:10020000b045f0d800232b75bae7ff22354b1968ab
:100210005b6891430a003f218b439b189a4203d2ab
:100220008021c9028b4206d900235120eb612b6249
:1002300000f046f9b6e75020ea612b6200f040f981
:10024000b0e728495e330a689a431300aa61ea6955
:10025000934212d32a6a93420fd280200023204f68
:1002600004314000ca58fa5004338342fad10123c2
:1002700050202b7500f024f994e7512000f020f96c
:1002800090e7502000f01cf9002000f019f95a20e6
:1002900000f016f986e7134bea691c682b6a100018
:1002a000991afff7e7fe844203d0542000f008f9c2
:1002b00078e7532000f004f974e7502000f000f9cb
:1002c00000f008f90028fbd0bff34f8f064b074a18
:1002d000da60bff34f8fc046fde7c04670050020cf
:1002e000940500209406002000ed00e00400fa05cb
:1002f00010b500f069f800f0a9f800f025f9002821
:100300000cd000f011f800f05ff800f0bff800f03a
:10031000f7f800f091f800f053f810bd80200001cc
:10032000fff7c0feede7c046104b04215a681b687a
:100330005203db0c13439b020d4a9b0a936300227a
:100340000c4b9a611a610c4a0c4b136253681942a8
:10035000fcd14021d023d15040220748903143584e
:100360001a42fcd00422064bda61704720608000fc
:100370000010004000140040001c00400601010075
:100380000008004010b5002911d0002b0fd00b4cf5
:100390006060a160e26062780120d2b262700422e3
:1003a000227061780842fcd061784a0701d50020ac
:1003b00010bde26801201a60fae7c0460020004143
:1003c000bff35f8f62b670478022014b5a6070475f
:1003d000004000410a000b0010b54032401a1c5882
:1003e00010c39342fbd1034b034a4908d961012052
:1003f0001a8010bd0040004104a5ffff034b044ad2
:100400004008d86101201a807047c0460040004172
:1004100002a5ffff0120024b1b7d98437047c04699
:1004200000400041024b034a4008d8611a807047df
:100430000040004141a5ffff7047c04680230004f3
:100440000904000c0843db05186070478223012271
:10045000de212220db055a5401315a5420395854e8
:1004600041315a5008491032ff329950a0210022e0
:1004700049005a5420381a3158542a395a543e21c6
:10048000ff315a547047c04601000004094a0a4b24
:1004900013600a4b9381c0239b025360d369002be6
:1004a000fcd1022113680b431360024ad369002b6d
:1004b000fcd170470008004204011040098affff88
:1004c0000121034a137e1942fcd080b21085704787
:1004d00000080042024b187e8007c00f7047c046dc
:1004e00000080042024b187e4007c00f7047c0460c
:1004f00000080042014b188d80b27047000800428e
:100500000022044b1a609a60034a5a6004221a605f
:100510007047c04610e000e07f1a0600012000226c
:10052000044b1968814319609a601a6802431a6083
:100530007047c04610e000e0024b1868c003c00fcf
:100540007047c04610e000e010b590208224802162
:10055000134be4054000c90402e0013b002b02d02c
:1005600022580a42f9d080239b050e491a688a4214
:1005700008d0822290230120d2055b00d3589b0e25
:10058000984310bd59689142f3d19a688a42f0d1dc
:10059000d9689142edd1002201201a60f1e7c046ee
:1005a000f1ff00004d43485010b50020fff7a0feba
:1005b00082228a230121d2055b00d150fff7d4fdae
:0805c000fce7c0464d43485022
:020000040000fa
:0407e000f8b5c04662
:020000040000fa
:0407e400f8b5c0465e
:00000001FF
